:08000000130100206F00400015
:1000080013050000370477779304000023000400E9
:100018008302140033C3920093840200B372530026
:100028001309000013F312006304030013091900F5
:1000380013F38200630403001309F9FFE30A09FCC0
:10004800330525011375F50FEF000001E38A05FE5E
:100058002300A4006FF0DFFB9302F5FF635C5002FE
:10006800937215006388020213033000630065026F
:100078009353150093020500B3826240E34E50FE8D
:10008800638A020013031300E3D663FE930510008E
:0C009800678000009305000067800000F6
:00000001FF
