:0C00000017110000130101006F00E01157
:10000C00135E1500894763F4C70B4111B7CEBE00D0
:10001C0022C626C48D45B708CCCC370F7777938E84
:10002C000EC203A408008327002883A448000327DA
:10003C004028B307F4403336F4003387E4406314AC
:10004C00C70063F7FE0203A6080083A648008327B7
:10005C0080272320C0282322D0282320FF00832799
:10006C008027860713F7071011C38507232CF0266A
:10007C00AA8613070002814713A606008607B297CB
:10008C007D17860663E3B7008D8F7DF799C793873D
:10009C0015006309BE00BE8569B73244A244014510
:1000AC00410182803244A2440545410182800545CC
:1000BC008280B707CCCC9043D44383270028832578
:1000CC004028B307F6403338F600B385B640B38505
:1000DC00054109C52320C0282322D0283E858280D3
:1000EC00AA8713070002014593A60700060536955B
:1000FC007D1786076363B5000D8D7DF782800947F8
:10010C00630BE50005476376A7009377150091C351
:0A011C00C5BD0145828005458280C3
:10012600B707CCCC984379715AC85EC6370B777738
:10013600DC432320E02803270B004ECE81492322EF
:10014600F02893C7F9FF9359870093F9F901B3F79C
:10015600370122D426D24AD052CC56CA62C466C2CD
:10016600370C100037CABE0006D66AC013F7270040
:1001760001448144814A7D1C894C130A0AC213F941
:10018600170051CBF5E013F7470011C3A10413F78D
:100196008700C18B3337E00093B71700B307F040F1
:1001A6003309E940FD8C631C090863819A04B7078B
:1001B600CCCC8843CC438327002803274028B307A9
:1001C600F5403336F5003387E5406314C700637F97
:1001D600FA003707CCCC1043B3B79A0054438607CE
:1001E600FD172320C0282322D028BE9AB3575401D6
:1001F60093F7F70F2320FB0003270B0093C7F9FFA4
:100206009359870093F9F901B3F7370113F72700DC
:1002160013F9170025FB13F7470035DB4147E39732
:10022600E4F613F78700C18B3337E00093B7170066
:10023600B307F0403309E940FD8CE30809F64A9418
:1002460033748401054D630F94012285937714005E
:1002560063758D0099C3453B29F94A94337484012B
:0C026600E31594FF094491B7E11475B74B
:10027800070000000000000001000000000000006E
:00000001FF
